{
  "contractName": "DIY",
  "abi": [
    {
      "constant": true,
      "inputs": [
        {
          "name": "",
          "type": "address"
        }
      ],
      "name": "balances",
      "outputs": [
        {
          "name": "",
          "type": "uint256"
        }
      ],
      "payable": false,
      "stateMutability": "view",
      "type": "function"
    },
    {
      "inputs": [],
      "payable": false,
      "stateMutability": "nonpayable",
      "type": "constructor"
    },
    {
      "constant": false,
      "inputs": [],
      "name": "deposit",
      "outputs": [
        {
          "name": "success",
          "type": "bool"
        }
      ],
      "payable": true,
      "stateMutability": "payable",
      "type": "function"
    },
    {
      "constant": false,
      "inputs": [
        {
          "name": "value",
          "type": "uint256"
        }
      ],
      "name": "withdraw",
      "outputs": [
        {
          "name": "success",
          "type": "bool"
        }
      ],
      "payable": false,
      "stateMutability": "nonpayable",
      "type": "function"
    },
    {
      "constant": false,
      "inputs": [
        {
          "name": "to",
          "type": "address"
        },
        {
          "name": "value",
          "type": "uint256"
        }
      ],
      "name": "transfer",
      "outputs": [
        {
          "name": "success",
          "type": "bool"
        }
      ],
      "payable": false,
      "stateMutability": "nonpayable",
      "type": "function"
    },
    {
      "constant": true,
      "inputs": [
        {
          "name": "_owner",
          "type": "address"
        }
      ],
      "name": "ethBalanceOf",
      "outputs": [
        {
          "name": "balance",
          "type": "uint256"
        }
      ],
      "payable": false,
      "stateMutability": "view",
      "type": "function"
    }
  ],
  "bytecode": "0x608060405234801561001057600080fd5b503373ffffffffffffffffffffffffffffffffffffffff16316000803373ffffffffffffffffffffffffffffffffffffffff1673ffffffffffffffffffffffffffffffffffffffff1681526020019081526020016000208190555033600160006101000a81548173ffffffffffffffffffffffffffffffffffffffff021916908373ffffffffffffffffffffffffffffffffffffffff160217905550610479806100bb6000396000f30060806040526004361061006d576000357c0100000000000000000000000000000000000000000000000000000000900463ffffffff16806327e235e3146100725780632e1a7d4d146100c95780637252bbf21461010e578063a9059cbb14610165578063d0e30db0146101ca575b600080fd5b34801561007e57600080fd5b506100b3600480360381019080803573ffffffffffffffffffffffffffffffffffffffff1690602001909291905050506101ec565b6040518082815260200191505060405180910390f35b3480156100d557600080fd5b506100f460048036038101908080359060200190929190505050610204565b604051808215151515815260200191505060405180910390f35b34801561011a57600080fd5b5061014f600480360381019080803573ffffffffffffffffffffffffffffffffffffffff1690602001909291905050506102ed565b6040518082815260200191505060405180910390f35b34801561017157600080fd5b506101b0600480360381019080803573ffffffffffffffffffffffffffffffffffffffff1690602001909291908035906020019092919050505061030e565b604051808215151515815260200191505060405180910390f35b6101d26103f8565b604051808215151515815260200191505060405180910390f35b60006020528060005260406000206000915090505481565b6000816000803373ffffffffffffffffffffffffffffffffffffffff1673ffffffffffffffffffffffffffffffffffffffff16815260200190815260200160002054101561025157600080fd5b816000803373ffffffffffffffffffffffffffffffffffffffff1673ffffffffffffffffffffffffffffffffffffffff168152602001908152602001600020600082825403925050819055503373ffffffffffffffffffffffffffffffffffffffff166108fc839081150290604051600060405180830381858888f193505050501580156102e3573d6000803e3d6000fd5b5060019050919050565b60008173ffffffffffffffffffffffffffffffffffffffff16319050919050565b6000816000803373ffffffffffffffffffffffffffffffffffffffff1673ffffffffffffffffffffffffffffffffffffffff16815260200190815260200160002054101561035b57600080fd5b816000803373ffffffffffffffffffffffffffffffffffffffff1673ffffffffffffffffffffffffffffffffffffffff168152602001908152602001600020600082825403925050819055508273ffffffffffffffffffffffffffffffffffffffff166108fc839081150290604051600060405180830381858888f193505050501580156103ed573d6000803e3d6000fd5b506001905092915050565b6000346000803373ffffffffffffffffffffffffffffffffffffffff1673ffffffffffffffffffffffffffffffffffffffff1681526020019081526020016000206000828254019250508190555060019050905600a165627a7a72305820fee0ec4e47ff11c962454cd7e0b8f1a5d60516731f860daccf839186314572830029",
  "source": "pragma solidity ^0.4.21;\n\ncontract DIY {\n    mapping (address => uint256) public balances;\n\n    // event BalanceChanged(address indexed _address, uint256 _balance);\n    address creator;\n\n    // mapping (address => mapping (address => uint256)) public allowance;\n\n    function DIY() public {\n        balances[msg.sender] = msg.sender.balance;        // Give the creator initially all the tokens\n        creator = msg.sender;\n    }\n\n    function deposit() payable returns(bool success){\n        balances[msg.sender] += msg.value;\n        return true;\n    }\n    \n    function withdraw(uint value) returns(bool success) {\n        if(balances[msg.sender] < value) throw;\n        balances[msg.sender] -= value;\n        msg.sender.transfer(value);\n        return true;\n    }\n\n    function transfer(address to, uint value) returns(bool success) {\n        if(balances[msg.sender] < value) throw;\n        balances[msg.sender] -= value;\n        to.transfer(value);\n        return true;\n    }\n\n    function ethBalanceOf(address _owner) public view returns (uint256 balance) {\n        return _owner.balance;\n    }\n\n\n    // function withdraw(address _receiver) public returns (bool) {\n    //     msg.sender.transfer(msg.value);\n    //     emit BalanceChanged(creator, creator.balance);\n    //     emit BalanceChanged(_receiver, _receiver.balance);\n    //     return true;\n    // }\n\n    // function() public payable {\n    //     emit BalanceChanged(creator, creator.balance);\n    //     approve(creator, msg.value);\n    // }\n\n\n\n \n    // function withdraw(address _destination, uint256 _value) public returns (bool) {\n    //     require(msg.sender == creator);\n        // if (_destination.balance >= _value){\n        //     _destination.transfer(_value);\n        //     return true;\n        // }\n        // return false;\n\n        // if(!etherreceiver.send(_value)){\n        //    return false;\n        // }   \n    //     return true; \n    // }\n    \n\n    // function approve(address _spender, uint256 _value) public\n    //     returns (bool success) {\n    //     allowance[msg.sender][_spender] = _value;\n    //     return true;\n    // }\n\n    // function transfer(address _to, uint256 _value) public returns (bool success) {\n    //     require(balances[msg.sender] >= _value);\n    //     balances[msg.sender] -= _value;\n    //     balances[_to] += _value;\n    //     emit BalanceChanged(msg.sender, balances[msg.sender]);\n    //     emit BalanceChanged(_to, balances[_to]);\n    // return true;\n    // }\n\n    // function balanceOf(address _owner) public view returns (uint256 balance) {\n    //     return balances[_owner];\n    // }\n\n    // function mint(uint256 _amount) public returns (bool success) {\n    //     require(msg.sender == creator);\n    //     totalSupply += _amount;\n    //     balances[msg.sender] += _amount;\n    //     emit BalanceChanged(msg.sender, balances[msg.sender]);\n    // return true;\n    // }\n}",
  "sourcePath": "/Users/JeffreyYu/Desktop/truffleProj/cs359b-diy-a-new-decentralized-index/DIY-Truffle/contracts/DIY.sol",
  "compiler": {
    "name": "solc",
    "version": "0.4.24+commit.e67f0147.Emscripten.clang"
  },
  "schemaVersion": "2.0.0",
  "updatedAt": "2018-05-31T05:20:24.267Z"
}